:020000040800F2
:10000000B00A0020D50000080B2D0008DF260008EC
:1000100000000000000000000000000000000000E0
:10002000000000000000000000000000A1320008F5
:100030000000000000000000852D0008A332000829
:10004000E7000008E7000008E7000008E7000008F4
:10005000E7000008E7000008E7000008B90E000804
:1000600000000000E7000008C508000800000000CC
:10007000E7000008E7000008E700000800000000B3
:10008000E7000008E700000800000000E7000008A3
:1000900000000000E7000008E7000008E700000893
:1000A00000000000792F0008E70000082B37000847
:1000B0002D370008E7000008E700000800000000F6
:1000C0000348854600F022F900480047B93C000883
:1000D000B00A00200448804704480047FEE7FEE7D6
:1000E000FEE7FEE7FEE7FEE7C1320008C1000008B8
:1000F00030B50B46014600202022012409E00D46C0
:10010000D5409D4205D31D469540491B2546954047
:1001100040191546521E002DF1DC30BD03460B433D
:100120009B0703D009E008C9121F08C0042AFAD2AD
:1001300003E00B780370401C491C521EF9D2704733
:10014000D2B201E00270401C491EFBD2704700226F
:10015000F6E710B513460A4604461946FFF7F0FFC6
:10016000204610BD0321001D401E037812021A43D1
:10017000491EF9D510467047024670B54A40D30F64
:10018000DB0740002DD04A002AD0010E140E0002D9
:1001900012020919400A520A8418E5010446544320
:1001A000000A120A2E045043A4194219200CC54318
:1001B000AA18120C0125AD03521C521912047F39E2
:1001C000240400D0521C104301D44000491EC2B286
:1001D0000C06C0092018401C4008802A02D003E009
:1001E000002070BD40084000002900DA00201843BC
:1001F00070BD10B500229623114600F04DF810BDD9
:10020000410040020122400AD205090E80187F29D0
:1002100001DA00207047962903DC9622511AC84063
:100220007047963988407047F0B51FB406460020E5
:1002300082B005464024019100901BE001992246BE
:100240000F46304600F084F8049A059B801A9941C5
:1002500010D310461946224600F06AF8361A8F412C
:100260000197224601200021009F00F061F8381814
:100270004D4100902046641E0028DFDC019B009861
:100280002946324607B0F0BD002904DA401C490077
:1002900001D140084000704770B40024050C05D11E
:1002A0001024000402D1002921D01124050E01D10F
:1002B00000020834050F01D10001241D850F01D172
:1002C0008000A41C002801DB4000641C002908D029
:1002D00020252E1B0D46F540A14000D001212943C9
:1002E000084301061B1B000ADB1D02D5002070BC61
:1002F0007047DB05181880180029F8DA401C4900FF
:10030000F5D170BC4008400070470000064C012544
:10031000064E05E0E36807CC2B430C3C98471034AD
:10032000B442F7D3FFF7D0FEBC3D0008DC3D000827
:1003300010B5202A04DB0146203A9140002010BD70
:10034000914020239C1A0346E3401943904010BD7E
:1003500010B5202A04DB0846203AD040002110BD09
:100360000B46D340D0402024A21A9140084319469E
:1003700010BD70B58C180578401C6B075B0F01D160
:100380000378401C2A1106D10278401C03E006784D
:100390000E70401C491C5B1EF9D12B0705D40023AD
:1003A000521E0DD40B70491CFAE70378401CCB1A7F
:1003B000921C03E01D780D70491C5B1C521EF9D580
:1003C000A142D8D3002070BDF8B500215B4D07468F
:1003D0000C46009120460C214843395C2A19517083
:1003E000C61970782855301DFFF7BCFE00BA000A08
:1003F000F17900020843A1004919641C24044860F3
:10040000240CE7D04D484E4A416800784000105A0D
:10041000814201D9002509E005202021000701F0D3
:100420006FF9002801D0012500E00225434C454822
:1004300000260C3C022D0BD02179465420796421F2
:10044000401CC0B2FFF754FE2171002D04D007E01C
:10045000227901218154F1E764213A48FFF777FEC0
:100460005A2064238446374A00200146175C002F37
:1004700001D0491C89B2401C80B29842F6D3614534
:1004800001D3012000E0304600280DD002F020FC0E
:100490002DA003F079F9A6702A48E670E6801421B1
:1004A0001438FFF754FEF8BD002D08D0E588962DCE
:1004B0002ED9207864282CD8401C207029E01F48B1
:1004C00000F02AFEA1781F4D4A00143DA852491C95
:1004D000C8B20A21FFF70CFEA170E0780A2801D308
:1004E0000A2102E0401CC1B2E170E170002007E087
:1004F0004200AB5A009A9A1892B2401CC0B20092C5
:100500008842F5D30098FFF7F3FD0546E080CEE77B
:100510002670002DC7D02078642805D902F0D8FBBA
:1005200009A003F031F9F8BD8C2D00D98C2502F01B
:10053000D9FB294607A003F027F9F8BD1C000020CD
:10054000F83C0008EE0100202D2D2D4F46462D2DA4
:100550002D0D0A002D2D2D4F4E2D2D2D2852203DD5
:10056000202564290D0A000010B502F095FB02F069
:10057000AFFB02F0F3FE10BD10B5002803D001461A
:10058000014802F069FF10BD540200207FB53D4BC9
:1005900004469A68DB68002003930292002C6DD019
:1005A00000296BD02288072A50D007DC130003F003
:1005B000FBF8074941454D514D5163000026324D2E
:1005C000122A43D006DC082A44D0102A25D0112A4A
:1005D00052D143E0132A3DD0FE2A05D0FF2A4BD149
:1005E00001206870034622E000F034F902F0A4FE16
:1005F000002122880123084600F082FCFFF7BCFF9F
:100600006E70C82000F0E2FABFF34F8F20491F48F8
:10061000C860BFF34F8F00BFFDE768780123012852
:1006200004D1A0782870A088688000E00023002111
:1006300008461FE0204600F0B9FB1DE0204600F010
:1006400015FB19E00123032102A813E0204600F066
:1006500053FB11E0204600F0BDFA0DE00096019634
:10066000687800280BD00B4869460880228801234F
:100670000621684600F044FCFFF77EFF7FBD22881C
:10068000D4E70000383D0008240000200400FA05EB
:1006900000ED00E00580000010B588210148FFF75B
:1006A00056FD10BD7C05002010B5074CA078002831
:1006B00009D0E188607822468001803A801800F0F5
:1006C00005F80020A07010BDFC050020F3B5002542
:1006D00081B0064600285DD0029800285AD0002735
:1006E000314C54E0A07D030003F05EF80B070F14BB
:1006F000191E24303E4348554E00705DFD2844D1FC
:1007000029482038078701203CE0705DFC283BD158
:10071000022037E0705DFB2836D1032032E0705DA7
:10072000FA2831D104202DE01F48715D203841871F
:10073000052027E01C49725D2039488F120280187D
:1007400080B2488736281FD806201BE01648715D06
:100750002038028F8154018F491C89B20187408F54
:10076000814212D107200DE0705D04280CD10820D1
:1007700008E0705D032807D1092003E0705D0228BE
:1007800002D10A20A07500E0A7756D1CADB20298D9
:100790008542A7D3FEBD705D0128F5D102482038FF
:1007A000418FFFF7F3FEEFE7B4020020F8B5224CCB
:1007B0001421224F2180398861801521A180204990
:1007C0002246D180172121817988002049BA1D4D08
:1007D00051810323014620319E00A1530021420094
:1007E000D219928802E05208491C89B2AA42FAD86A
:1007F000002801D0012801D1891C89B2C902114306
:1008000032195B1C401C80B251809BB21028E1D38E
:10081000002198002152001941800D4607E0091976
:100820004A88C1B2402002F0A7F96D1CADB2A90000
:10083000605A0028F3D1F8BDF40200201C0100200A
:1008400008170000FF0700000149012008707047E9
:100850002800002010B5044C2078002803D000F0B8
:1008600005F80020207010BD28000020F8B5124DBA
:100870000024284600F078FB114F10483860012210
:100880003946284600F09EFB2E1DE000C519291DA3
:100890000122304600F096FB6868361D8003020C8A
:1008A0003046A96800F08EFB6868641C8619A4B203
:1008B000042CEAD3F8BD000000700008785634120A
:1008C000D002002010B50248806D00F065FC10BD1C
:1008D0004803002030B5056C0124AC40C56B6C604A
:1008E000046863604368102B036803D09960006854
:1008F000C26030BD9A600068C16030BDF8B51E4668
:10090000002829D0002E27D07E235A43134BD71816
:100910003C4640343288A38F891A8B4200DD0B4657
:10092000618F9DB2CB1911182A461846FFF7F6FBC6
:10093000608F401960873188681E08183080A08F4A
:10094000401B0004000CA08706D1052060373875D5
:10095000034840880838A087F8BD00005C010020EB
:1009600008000020F7B5064682B0002069460880DE
:100970000190002E05D00399002902D00499002986
:1009800002D0002005B0F0BD049833497E225043C8
:1009900047183D4660353C46403454E0287D03000E
:1009A00002F002FF090611161D252C333A415800AA
:1009B000705CAA2843D100206087725C01216187A6
:1009C000C25529753BE0705C049900F0E1F836E00F
:1009D000608F725C411C6187C255032005E0608F07
:1009E000725C411C6187C2550420287527E06B4664
:1009F0003046049A0399FFF781FF20E0608F715C15
:100A0000421C6287C1550620EFE7608F715C421C73
:100A10006287C1550720E8E7608F715C421C6287DE
:100A2000C1550820E1E7725C00202875552A00D0E6
:100A300004E0608F411C6187C25501200190694626
:100A40000888401C08806846018803988142A5D325
:100A5000019897E70020C8E75C0100200148408822
:100A6000704700000800002010B500247E210F48C8
:100A7000FFF76DFB06210E48FFF769FB0C4800F0FD
:100A8000E9FA0B48094943881846083880B27E22A3
:100A9000624352184032641C24069087240EF6D01C
:100AA0005804000C02F05AFB10BD00005C0100204D
:100AB00008000020F8B5124F124E0025002414E063
:100AC0006000C019415D0029FCD0002D16D070884F
:100AD0002146E82251430C4A738889180A1829468E
:100AE000204600F015F8641CE4B2084800788442FF
:100AF000E6D36D1CEDB2022DE0D3F8BD0020E7E790
:100B00004401002008000020F003002040010020E4
:100B1000FFB57D2481B016460D460746E40002F07D
:100B20008DF8002F12D1022D10D2002E0ED03A4691
:100B300030460499FFF716FF0E4A00215155002850
:100B400007D00D4D2878022806D104E00BA002F052
:100B50001BFE05B0F0BD0F24204602F08BF869881B
:100B60000A480029F5D0083989B2001DFFF72CFC8E
:100B7000EFE7000044010020080000204572726F7A
:100B8000722070617261210D0A0000005C0100207A
:100B900030B50C4A7E2413780B4A614389180A4603
:100BA0006032022B02D10309042B02D00020107501
:100BB00030BD0C464034638F5D1C6587585402205D
:100BC000F5E70000080000205C01002010B500F0EF
:100BD000B3FB10BDF8B50546012000240090002DA0
:100BE0000DD000290BD01E484078002831D0C80312
:100BF0001C494018070C0D2F2BD81B4E1EE000205F
:100C0000F8BD2888042804D008280ED0132813D152
:100C100005E060004019408802F070F80AE06000CA
:100C20004019408802F062FB04E0600040194088EF
:100C300002F06CF8A1007050641CA4B2BC42E0D376
:100C40000098002805D07804010C2A88012330463A
:100C500003E000232A881946184600F051F9F8BD30
:100C6000240000200000FFFF5C020020F0B50546D4
:100C7000012085B000240390002D12D0002910D04F
:100C80001A484078002829D068884004000C029057
:100C9000C80317494018070C1A2F1FD81548019090
:100CA00012E0002005B0F0BD002069460880660013
:100CB000701901796A46029801F058FD6946019859
:100CC0000988641C8153A4B2BC42EDD30398002868
:100CD00004D02A8801233946019803E000232A889A
:100CE0001946184600F00CF9DCE70000240000204B
:100CF0000000FEFF5C020020F8B5012700250A462F
:100D0000064600280CD0002A0AD027484078002840
:100D100042D00621901EFFF7EBF980B2009038E038
:100D20000020F8BD0620684384193088A41C0328DD
:100D300004D007281AD0122827D10BE0A01CFFF7F7
:100D400011FA617823780A021A430146104601F02D
:100D5000D9FF15E0A01CFFF705FA617823780A0295
:100D60001A430146104602F0D3FA09E0A01CFFF72F
:100D7000F9F90146607822780002104301F0DEFFA5
:100D80000446FFF761FD002C00D000276D1C009881
:100D9000ADB28542C6D300E00027002132883B4631
:100DA000084600F0ADF8F8BD24000020FEB500258F
:100DB00001276A460646958000280FD000290DD0ED
:100DC0001B48407800282BD0708889034004000C11
:100DD000009018480818000C02901EE00020FEBD8C
:100DE000A8008419E2882179241D009801F0C4FE2E
:100DF0000098402803D16188208802F073F8217898
:100E000001AA009801F0B2FC69466088898888428E
:100E100000D000276D1C0298ADB28542E0D300E0FF
:100E20000027002132883B46084600F069F8FEBDE5
:100E3000240000200000FFFFF8B5002469460C8064
:100E400015A002F0A1FC194E0CE0C1B26A46402088
:100E500001F08CFC68460288715B154802F094FC36
:100E6000641CA4B2A500705B0028EED10024114ED2
:100E70000CE0C1B26A46402001F078FC6846028866
:100E8000715B0B4802F080FC641CA4B2A500705B8F
:100E90000028EED1F8BD00007261646172206963C0
:100EA0002076616C75653A0D0A0000003000002064
:100EB000B02E0008F402002003494020CA68904385
:100EC00001D14020C86070470018024070B5044648
:100ED00000F022FC0419084D05E000F01DFCA042C2
:100EE00001D3032070BD2869C043C003F5D5034872
:100EF0002861002070BD0000002002401180000029
:100F0000FFB54C0081B017460646342C02D90020AC
:100F100005B0F0BD124D042228461249FFF7FEF835
:100F20000420002E00D0A01CA880FF200130074321
:100F3000EF80002E10D00A48224608303146FFF7D5
:100F4000EDF80834A4B2074928190422091DFFF757
:100F5000E5F8241DA0B2DBE7049828810A24F2E713
:100F600054020020383D000810B5044686B0400603
:100F700003D00020C04306B010BD0020049000F054
:100F8000C9FA0220009001200390019404A9684648
:100F900000F0E4F9002803D003A0049902F0F4FB68
:100FA00000F064FA0020E6E7466C6173685F457202
:100FB000617365506167652065727220636F646557
:100FC0003A256400F8B505469004000C0090D00462
:100FD0000E46040ED706FF0E80211C48FFF7B7F817
:100FE00000981B4A00212818C943904201D8A8073D
:100FF00001D00846F8BD00F08DFA002C23D08022E5
:1010000031461248FFF78AF8104A2946012000F0BD
:101010003BFA80210D48FFF79AF8641E8035803630
:101020002406240EEBD1002F09D0BA003146074820
:10103000FFF774F8054A2946012000F025FA00F070
:1010400015FA0020F8BD009AF0E700001406002011
:10105000FF7F000870B5144D04000BD001F0B6FE00
:101060002070014611A002F08FFB2078022803D0E7
:1010700012A00DE0284670BD01F0C4FE083081B218
:10108000618015A002F080FB6088742803D916A047
:1010900002F07AFBEEE701F0C3FEA08001461AA041
:1010A00002F072FB002070BDFFFFFFFF64617461FE
:1010B000547970653A2025640D0A00004572726FFC
:1010C000723A20756E737570706F727420646174FB
:1010D00061547970650D0A00646174614C656E3A03
:1010E0002025640D0A0000004572726F723A206478
:1010F0006174614C656E20697320746F6F206C6F32
:101100006E670D0A0000000063686972704E756DAD
:101110003A2025640D0A000010B50078FFF769F841
:101120000349FFF729F8FFF76BF880B210BD000004
:101130000000204170B50024024620325178022977
:1011400003D004218163012422E001680B680E258D
:10115000AB430B6001680B685B085B000B600D4BD9
:101160000168994201D1012107E00A4B14339942E9
:1011700001D1102101E0FF210131064B083B5960EC
:101180000121517000211170416B002900D0884766
:10119000204670BD08000240F0B4C16B0C680168C5
:1011A0000B680426056C3246AA4022421AD05A0720
:1011B00018D50A68920602D40A68B2430A602A4A1D
:1011C0000168914201D1042107E0274A143291427B
:1011D00001D1402101E001218902234A083A5160EE
:1011E000C16A25E00227AF4002462740012620328F
:1011F000002F21D09F071FD50B689B0604D40B68D6
:101200000A24A3430B605670174B0168994201D121
:10121000022107E0144B1433994201D1202101E04F
:1012200001214902104B083B596000211170816A6D
:10123000002916D0F0BC08470827AF40274210D03D
:101240001B070ED50B680E24A3430B60036C3146BD
:101250009940C36B59608663567000211170016B11
:10126000E6E7F0BC704700000800024070B50400DB
:1012700026D01448256814212818FEF739FF80006D
:1012800020641148E06302212046203041702A6822
:101290000E49A3680A40616826691943E36833432D
:1012A000194363691943A3691943E3691943114356
:1012B00029600021A163012242700170084670BDBF
:1012C000012070BDF8FFFDBF000002400FC0FFFF0E
:1012D000F8B504468C46203001780025012909D054
:1012E0000126067047780021012F05D001700225E4
:1012F0002846F8BD0220F8BD02274770A163206888
:10130000016849084900016061462046FFF7E2FA9A
:10131000E06A00282068016801D00E2205E004225E
:1013200091430160206801680A221143016020682E
:10133000016831430160DBE770B5044600F0ECF969
:101340000546601C02D004484068241800F0E4F907
:10135000401BA042FAD370BD4C010020F3B50546F6
:1013600081B0012000903E48017801290DD0012173
:1013700001707D242868E4003A4E012807D0FF2739
:10138000022816D0032848D064E00220FEBD204683
:10139000FFF79CFD00285DD131480021416000F03D
:1013A000B9F871690425294371612F48C1060860A5
:1013B00047E07D20C000FFF789FD00284AD1411E8B
:1013C0000298022701606C6820E0254900204860EF
:1013D00000F0A0F8706938437061FF202060306928
:1013E000C00302D53069C007F9D07D20C000FFF7E7
:1013F0006DFD009000F08EF87069B8437061009840
:10140000002802D00298046024E08034E86869680B
:10141000C0014018A042D8D81CE02046FFF756FD76
:10142000002817D1AB6800F075F870690125ED024E
:10143000284370611F603069C00302D53069C0075E
:10144000F9D02046FFF742FD009000F063F8706984
:10145000A84370610249002008700098FEBD00009A
:101460009406002000200240214334120549012047
:101470004A69C3071A434A614969002900DA002012
:101480007047000000200240F8B5204F144638781D
:101490000D46012808D001267D203E70C000FFF7D0
:1014A00015FD030002D02EE00220F8BD00F032F856
:1014B000174900204A6932434A61EFF3108372B63C
:1014C0000122D2040E4602CC401C02C5C0B21F2825
:1014D00015D02028F7D33069C003FCD483F31088DB
:1014E0007D20C000FFF7F2FC034600F013F870699E
:1014F000400840007061002B05D01846F8BD7169A6
:1015000011437161DFE700203870F6E79406002090
:1015100000200240064900204A69002A07DA054AED
:101520008A60054A8A604969002900DA012070470B
:101530000020024023016745AB89EFCDF0B50022C2
:101540004BE0012393409E460B4045D09508254C27
:10155000AD002C19256E9607F70E0F26BE403540BC
:10156000AC4605252D07A84201D1002505E01E4DFA
:10157000A84201D1012500E00225BD40654511D1F9
:10158000184D80352F689F432F606F689F436F60B1
:10159000144D2F689F432F606F689F436F60236EC9
:1015A000B3432366046855000323AB401C43046027
:1015B000D408A4002418266A5507EF0E0F25BD4055
:1015C000AE43266284689C43846044687546AC439D
:1015D0004460C4689C43C460521C0B46D340B0D1E5
:1015E000F0BD00000018024000040050F0B50022D9
:1015F0007BE001249440A446234075D04C68022C23
:1016000001D0122C0CD1D408A40027183D6A54072D
:10161000E40E0F26A640B5430E69A6402E433E6257
:10162000066855000324AC400F79A643BF07BF0FDF
:10163000AF40374307604E68012E05D0022E03D01D
:10164000112E01D0122E0ED18668CF68A643AF406E
:101650003743876047686646B7430E79F606F60F4C
:1016600096403E434660C668A6438C68AC4034430F
:10167000C4604C68E40037D595081F4CAD002F19A5
:101680003D6E9407E40E0F26A640B54305263607A7
:10169000B04201D1002605E0184EB04201D101262A
:1016A00000E00226A6402E43134D3E66124E8036C1
:1016B00034684F689C43FF0300D51C433460746852
:1016C0004F689C43BF0300D51C4374602C684E6870
:1016D0009C43F60200D51C432C606C684E689C430A
:1016E000B60200D51C436C60521C0B681C46D440EB
:1016F00000D07EE7F0BD000000180240000400505A
:101700000069084000D001207047002A01D08161A3
:101710007047816270470000014880687047000090
:101720004C010020F8B504001BD027462037787EF6
:10173000002803D13876204600F038FA2420787645
:101740002068016849084900016000F0E9FA05468F
:10175000444E6068B04201D8434800E043488542A7
:1017600001D20120F8BD42492846FEF7C1FC21689C
:101770004A689209920102434A603A4962688A4281
:1017800006D9FF212D3148437D21C900FEF7B0FC69
:101790002168401C0A6A920992011043086231488C
:1017A000666886420AD87100681EFEF7A1FC401CDC
:1017B0000005000D042821D204201FE0A06800903D
:1017C00000283DD0314619204143681EFEF790FCA9
:1017D0002849401800053AD00098002839D019202F
:1017E00031464143681EFEF783FC401C0005012181
:1017F000000D890340180121C90308432168CA6903
:101800001D4B1A401043C861A169E069014320687B
:101810000268C0239A431143016020688168FE2258
:101820009143E268114381602068016801221143FD
:1018300001600020E06320217976E062B876F8BD8F
:1018400070003118681EFEF753FC401CC2E70120EF
:10185000D4E770003118681EFEF74AFC401C0005F2
:10186000000DC8E7A086010080841E0000093D002D
:1018700040420F00014000000030FFFFFFB583B081
:1018800004460C9FFFF748FF264605462036707E2B
:1018900020287AD1192301227A492046009501F0A7
:1018A0009CF80028F5D1307E01286ED001213176D8
:1018B00020680268D20702D102680A4302602068E9
:1018C00001680122D20291430160222070764020FB
:1018D000B0760020E06327620D98E084E08CA0845D
:1018E0006948A0620E980090019504A90EC920468F
:1018F00000F07EFF00287DD1A08C01277F02002808
:101900000DD0012813D00228206801681DD07A006C
:10191000114301602068416980690090A5E020685A
:101920004169816900910168394301609DE0206847
:101930000268012189028A43026072B62068416907
:1019400081690091016839430CE00122D202114300
:10195000016072B6206841698169009101680122C5
:1019600092029143016062B67FE0032856D80128B5
:101970000CD00E9B0228009514D00022434920462B
:1019800001F02BF8002850D115E078E02A462046D7
:101990000E9901F09BF8002847D120680069216A60
:1019A000087059E000223949204601F016F8002855
:1019B0003BD172B61CE0206801680122920291437B
:1019C000016072B620680069216A0870206A401CB4
:1019D0002062A08C401EA084E08C401EE084009514
:1019E00000222A4920460E9B00F0F7FF00281CD158
:1019F000206800E019E0016839430160206800694F
:101A0000216A0870206A401C2062A18C491EA184B2
:101A1000E18C491EE18462B621681BE02A4620461B
:101A20000E9901F053F8002802D0012007B0F0BD54
:101A300020680069216A0870206A401C2062A18C1D
:101A4000491EA184E18C491EE18421684A69D24380
:101A500052070AD409690170206A401C2062A08CD8
:101A6000401EA084E08C401EE084A08C002800D0A2
:101A70007BE7202070760020B0763076D6E7022013
:101A8000D4E70000020010000000FFFF0400010086
:101A9000FFB583B004460C9FFFF73EFE2546064681
:101AA0002035687E20287AD1192301223D4920461D
:101AB000009600F092FF002871D1287E01286ED098
:101AC0000121297620680268D20702D102680A4300
:101AD0000260206801680122D20291430160212046
:101AE00068764020A8760020E06327620D98E084A5
:101AF000E08CA0842C48A0620E980090019604A966
:101B00000EC9204600F0ECFE01277F0200280ED10E
:101B100030E0324620460E9901F007F8002809D03F
:101B2000E06B042803D1206801683943016001207B
:101B300007B0F0BD206A216800780861226A521C53
:101B40002262A08C401E80B2A084E18C491EE184F8
:101B500021684B69DB435B070CD400280DD010785B
:101B60000861206A401C2062A08C401EA084E08C8A
:101B7000401EE084A08C0028CBD1324620460E992E
:101B800000F004FF0028CBD12068016839430160D0
:101B9000202068760020A8762876C9E7FFE7022093
:101BA000C6E70000020010000000FFFFF0B587B09C
:101BB00014216846FEF7CBFA174CE06B01256D0542
:101BC0002843E063E06B28400590616B20200143CF
:101BD0006163616B01400591616B01436163616BFE
:101BE000012601400591022012216A4643C20C27BA
:101BF00081C269460948FFF7F9FC6946074804971E
:101C00000096FFF7F3FCE06A2843E062E06AA8432D
:101C1000E06207B0F0BD0000001002400014005068
:101C200070B504000FD02168104808602168104882
:101C3000086003CC41602068083C21688860FFF799
:101C40006BFD054608E0012070BDFFF765FD401BF8
:101C5000302801D9032070BD2068C0680028F4D165
:101C6000216804480860002070BD0000CCCC000052
:101C700055550000AAAA0000006802490160002032
:101C800070470000AAAA00000248816842688918CB
:101C9000816070474C01002010B50024032000F043
:101CA00009F8002801D0012401E000F027F82046BF
:101CB00010BD000070B50F4E002471680546002964
:101CC00015D07D20C000FEF713FA01460A480068CF
:101CD000FEF70EFA00F06AFB002808D1042D06D2A8
:101CE00000222946401E00F017F8356000E001246C
:101CF000204670BD4C0100204801002070470000C4
:101D0000002805DBC106C90E012088400149086092
:101D10007047000000E100E010B501F053FD10BD78
:101D20000648074900688968064A4904490F89003E
:101D3000515CC906C90EC840704700004801002028
:101D4000001002409C3D000870B5040010D0022035
:101D5000254640356877206801684022914301603C
:101D6000204600F0E1F8002020666877287770BDF3
:101D7000012070BD10B5016E01A001F005FD10BD80
:101D8000687370692D3E4572726F72436F6465208F
:101D90003D20256420000000F8B504460068426834
:101DA0008168C9434B0606D5CB0704D1D3435B06F4
:101DB00001D4E16C05E08B0706D4D3431B0603D4A2
:101DC000216D20468847F8BD8B0601D54B06FAD415
:101DD000D3439B06F7D423464D064033002D09DB41
:101DE0005D7F032D3DD0256E042635432566C568ED
:101DF000856800958E0601214025002E07DB266EA2
:101E00000E432666866800960668AE430660206E1E
:101E10000028D8D020684668E027BE43466059773E
:101E2000900722D020684168890889004160A06D30
:101E3000104E002808D04663A06DFFF77BF90028FC
:101E400002D0206E28432066606D0028BBD0466318
:101E5000606DFFF76FF90028B5D0206E284320662B
:101E6000F8BDC16880680090F8BD2046FFF782FF8A
:101E7000F8BD0000892F0008F8B5040007D000263F
:101E800025464035A662687F002802D005E0012083
:101E9000F8BD2E77204600F067F802226A772068A6
:101EA00001684023994301600723E0681B029842C0
:101EB00001D9002101E0012109030F273F02B842A7
:101EC00002D0984200D0A662276B002F05D198421D
:101ED00001D9226301E001202063A2686068636980
:101EE000104322691A4310430123A2695B021A407E
:101EF0001043E2691043226A1043A26A1043226829
:101F00001060626B606AA36910431B0C0427E268CF
:101F10003B401A431043084321684860266601206D
:101F200068770020F8BD000010B500680C498842B1
:101F300015D10C48026B81140A430263026B8A4379
:101F400002630524240702212046FFF7F7FA402107
:101F50002046FFF7F3FA04212046FFF7EFFA10BD01
:101F60000030014000100240F0B5054600684849C5
:101F700087B088427ED1474C606B0127384360634D
:101F8000606B38400590606B38436063606B38402D
:101F90000590606B38436063606B38400590606B00
:101FA00038436063606B384005903A4840300068C1
:101FB0008A143849104340310860086800261040F0
:101FC0000590022000900190029003900520694640
:101FD00004960007FFF70AFB4020009005206946A1
:101FE00004960007FFF702FB0420009005206946D5
:101FF00004960007FFF7FAFA1020009005206946C2
:1020000004960007FFF7F2FAA06B3843A063A06BB9
:10201000384005901F48403000681E493843403121
:10202000086008681D4C384005901B48072141C4D2
:10203000802026606060E8680902083C884202D877
:102040002661666104E0FF2001302061800060614C
:1020500001204003A661E0611048FFF707F90E4830
:102060001C38C169032212039143C161C169114344
:10207000C16100E009E0AC65012211460A206562F9
:10208000FFF74AFE0A20FFF73BFE07B0F0BD000055
:1020900000300140001002401C000240AC03002050
:1020A000F8B505468368002640350446002B03D169
:1020B0006068C71FFD3F09D0287F01280ED0012787
:1020C0002F77687F01280BD0022670E00420687704
:1020D00013460A46204600F09DF8F8BD0220F8BDE0
:1020E000002921D0002A1FD0042068770020206614
:1020F0002164AA80EA80E0642065A087E08701214E
:10210000C9038B4204D121680A685B109A430A60B4
:1021100007220123E16812021B03914221684A68E9
:1021200004D99A434A6014E0012640E01A434A6009
:10213000A16D01224969920291420AD121684A683F
:102140009A434A60E988C907E9881DD04908491CB3
:10215000E980A26D1849D162A26D18499162A26D01
:1021600017491163A16D4863EB882168226C0C311B
:10217000A06DFFF7ADF8002808D0206E10210843AD
:10218000206601266F7712E04908E1E720680168C0
:10219000490603D401684022114301602068416868
:1021A000202211434160206841683943416000208A
:1021B00028773046F8BD0000BD2F0008D12F000859
:1021C0009B2F000870B50F480F4C428820885100A3
:1021D000101880B20125A61C2080814208D80B4926
:1021E0000846A838FFF75CFF75700020208070BD9E
:1021F0008242FCD105481118A838FFF751FF35700D
:1022000070BD00000800002042010020F003002003
:1022100070470000F8B5054604464035287F002683
:1022200096468C4601280CD001272F77687F61687D
:1022300001280CD0CA1FFD3A07D1A168002904D19A
:1022400001E00220F8BD042801D0022695E0604696
:10225000002821D0704600281ED0002B1CD0687F9B
:10226000042801D005206877002020666146A1631C
:10227000A387E38771462164AB80EB80E06420652F
:1022800007220123E16812021B03914221684A6878
:1022900004D99A434A601FE001266EE01A434A605F
:1022A000616D4A69012189028A4206D1A28FD20753
:1022B000E28F2AD05208521CE287A26D52698A42EC
:1022C0000AD121684A689A434A60E988C907E988BF
:1022D0001DD04908491CE980697F042919D0A26DE5
:1022E0002849D1622849A26D00209162A26D274938
:1022F0001163A16D4863EB882168226C0C31A06DDD
:10230000FEF7E6FF00281FD108E05208D4E749088D
:10231000E1E7A26D1E49D1621E49E4E720684168E9
:1023200039434160616D0020C862616D8862616DF2
:102330000863616D4863E38F2268A16B0C32606DA6
:10234000FEF7C6FF002806D0206E10210843206645
:1023500001266F7711E020680168490603D40168FF
:1023600040221143016020684168202211434160EE
:1023700020684168022211434160002028773046DE
:10238000F8BD0000C72F0008293000089B2F000867
:10239000BD2F0008D12F0008704770470249CA6955
:1023A0000243CA617047000000000140094910B5AE
:1023B000401E884201D9012010BD074C60610321F5
:1023C000081F01F0FFF90020A06107202061002014
:1023D00010BD0000FFFFFF0000E000E070470000BC
:1023E00070B504460068C168FF2221329143C16084
:1023F0002068416949084900416121684869002213
:102400004506204620234030002D11DA4D69402634
:10241000B5434D61A16C00290AD009484863A06CFE
:10242000FEF788FE002808D0A06C416B884704E0C6
:10243000628783732046FFF7D1FF002070BD000044
:102440004534000870470000F8B50268044610687B
:10245000D16853690607360F4025002E51D0DE079C
:10246000F60FFF2721370F403E435BD0C20705D050
:10247000CA0503D5226D012632432265420705D5E0
:10248000DA0703D0226D022632432265820705D582
:10249000DA0703D0226D042632432265020708269C
:1024A000002A04DADA0702D0226D32432265226D57
:1024B000002A25D0800604D5880602D5204601F0E2
:1024C00009F820684069216D4006C00F3140014382
:1024D000204622D000F0CCFF20684169490618D57B
:1024E0004169A9434161A06C002812D01849416399
:1024F000A06CFEF71FFE002802D0A06C416B88473D
:10250000F8BD83060ED58B060CD5204600F0E2FF01
:10251000F8BD2046FFF796FFF8BDFFF793FF0020B8
:102520002065F8BD030605D50B0603D5204601F04E
:102530009BF8F8BD4006FCD54806FAD5D168204680
:10254000A943D16020224D210A5500F0C7F8F8BDFB
:1025500035340008F8B5040006D025464035687BC0
:102560000026002802D005E00120F8BD2E73204689
:1025700000F026F8242068732068C16801277F03D3
:10258000B943C160204601F00DF8206A002802D04E
:10259000204600F037FF206801690122D2029143F2
:1025A0000161206841690822914341612068C16846
:1025B0003943C160266520206873A8730020F8BDE8
:1025C000704710B5034640339C7B202C21D1002955
:1025D0001DD0002A1BD01C7B012C1AD0416302871E
:1025E000012442870021016522229A731973016830
:1025F000CA6823021A43CA6001684A6922434A61D1
:102600000068C16820221143C160002010BD012074
:1026100010BD022010BD7047FFB507460446403785
:10262000787B83B015460E46202855D1002E0AD05F
:10263000002D08D0A168C001814207D1206900287F
:1026400004D1F00702D0012007B0F0BD387B01288B
:1026500042D0012038730020206521207873FFF7D5
:102660005BF80190258665860120A1680003814200
:1026700002D12069002802D03546002611E000254D
:102680000FE000228021204601F01FF8002815D11C
:10269000002D15D02168287848606D1C608E401E82
:1026A0006086608E019B002806980090E9D1002288
:1026B0004021204601F009F8002808D00320C3E794
:1026C00030882168C005C00D4860B61CE6E72020B0
:1026D000787300203873B7E70220B5E77047FEE74C
:1026E00010B50F49002804D0012804D0022805D1D4
:1026F00003E00C4902E00C4900E00C490D480C4A8B
:102700000260416000218160C160016141618161BD
:10271000C161FFF707F8002800D0FEE710BD0000F8
:10272000801A0600A0860100400D0300E09304001B
:1027300000540040D804002010B501684A69D24313
:1027400052050ED4084A4A610022C2622023C118F1
:102750004B768A76C36B04242343C3630A76012035
:1027600010BD002010BD0000FFFBFFFFF7B588B0D3
:1027700000226B461A8303910490032406AE9A83C9
:10278000154664270FE0022007A90091019001235C
:1027900002971048039A0499FFF770F8050007D0D4
:1027A0000120FEF7C9FD2046641EE4B20028EAD1EC
:1027B0006846808B002D40BA308003D006A000F020
:1027C000E3FFFEE76846018B0A98018000200BB00A
:1027D000F0BD0000D8040020505933325F49324325
:1027E0005F5772697465204572726F720D0A00003E
:1027F000FFB5044600680F46016881B01D460122FE
:102800009202114301602068016892101143016037
:102810000B9800900022314920460A9B00F0DDF819
:10282000002857D1FE202168384008612B492046F6
:10283000491C0B9B0A9A00F003F900284AD1206832
:1028400041698069009020460B9A0A9900F06DF961
:1028500001267602002807D0E06B04283AD12068D0
:1028600001683143016035E0284603990128CDB263
:1028700009D0080A2168086120460B9A0A9900F0DD
:1028800054F90028E8D12068056120460B9A0A997E
:1028900000F04BF90028DFD120680168FF220132E7
:1028A000114301600B98009000220C4920460A9BBE
:1028B00000F093F800280DD1012007432168F8B2F9
:1028C000086106492046491C0B9B0A9A00F0B8F89B
:1028D000002800D0012005B0F0BD0000010001007B
:1028E000FFB5044600680D46016881B01646FF2218
:1028F0000132114301600B980090002222492046CA
:102900000A9B00F06AF800283AD1FE2005402068B2
:1029100005611D492046491C0B9B0A9A00F090F85E
:1029200000282DD1206841698069009020460B9ACB
:102930000A9900F0FAF801277F02002807D0E06B1F
:1029400004281DD1206801683943016018E004980B
:10295000F5B2012809D02168300A086120460B9A97
:102960000A9900F0E2F80028E9D1206805610649DB
:1029700020467F310B9B0A9A00F062F8002800D0B5
:10298000012005B0F0BD00000100010070B5164641
:102990000D4604460FE02046FFF7CEFE002801D08A
:1029A000012070BD681C06D0FEF7B6FE801BA84251
:1029B00008D8002D06D020684069C0434007EAD4FB
:1029C000002070BD0021E1622022A01842768176AD
:1029D000E36B1343E3630176E2E7FFB504460802C5
:1029E00081B01D460E46070E09E0681C07D0FEF7B1
:1029F00093FE0A99401AA84211D8002D0FD02068E2
:102A0000012F18D08169304688430004000C14D08F
:102A1000002003998842E8D0002005B0F0BD0021D5
:102A2000E1622022A01842768176E36B1343E363D0
:102A300001760120F1E74169E5E70120E9E70000BF
:102A4000FFB504460802000E81B0254616460F4623
:102A5000203500901FE020684069C043400510D435
:102A60002068016801225202114301602168164862
:102A700048610020E06220216976A876E16B04229B
:102A80001AE0701C07D0FEF747FE0499401AB042C6
:102A90000CD8002E0AD000980128206812D0816935
:102AA000384688430004000C0AD0D4E70020E062D6
:102AB00020226A76A876E16B1143E1632876012033
:102AC00005B0F0BD4169EBE7FFFBFFFFF8B5054638
:102AD00017460E460446203515E04069C043C0063F
:102AE0000AD410202168C04348610020E062202100
:102AF0006976A876E16B14E0FEF70EFEC01BB042CB
:102B000008D8002E06D020684169C9434906E4D49C
:102B10000020F8BD0020E06220226A76A876E16BF2
:102B20001143E16328760120F8BD70B516460D46C5
:102B300004460FE02046FFF7FFFD002801D00120EA
:102B400070BD681C06D0FEF7E7FD801BA84208D8C0
:102B5000002D06D020684069C0430006EAD400205A
:102B600070BD0021E1622022A01842768176E36BDD
:102B70001343E3630176E2E71FB513460A460146B5
:102B800058BA6B469881022303A8642401930090ED
:102B9000029401230548FEF77BFF002803D004A020
:102BA00000F0F2FDFEE704B010BD0000D8040020E4
:102BB000505933325F4932435F577269746520451B
:102BC00072726F720D0A000008B51248C26BC11410
:102BD0000A43C263C06B084000900E484030016A4F
:102BE000012211430162016A8907FCD50B480A4999
:102BF0000160032141607D21C90081600849C160F5
:102C0000FFF70EF8002803D006A000F0BDFDFEE798
:102C100008BD000000100240003000400406002003
:102C2000FF0F000048414C5F495744475F496E69B8
:102C300074204661696C65640D0A000010B5054892
:102C4000FFF71AF8002803D003A000F09DFDFEE76F
:102C500010BD00000406002048414C5F495744471E
:102C60005F52656672657368204661696C65640DC4
:102C70000A00000010B5074A01465088401C80B287
:102C80005080FDF735FA002902D1002000F035F818
:102C900010BD00002A00002000B50B4887B0426B31
:102CA00002210A434263406B039108400590402093
:102CB0000090012001900020029069460348FEF731
:102CC00095FC07B000BD0000001002400004005059
:102CD00010B5002240210248FEF717FD10BD00008C
:102CE0000004005010B5012240210248FEF70DFDFE
:102CF00010BD000000040050704770470048704746
:102D0000FFFFFF7F0020C04370477047094900283C
:102D100007D0012807D0022807D0032807D006488B
:102D20007047087870474878704788787047C87847
:102D3000704700001C010020FFFFFF7F03B50199D1
:102D40000F4AC9B2030000F02FFD050406080A0C63
:102D5000170011700EE051700CE091700AE0D17014
:102D600008E068468088102804D269464000C98877
:102D70008018818000200CBD0020C0430CBD0000E5
:102D80001C010020704710B5FEF786FF00F090FA96
:102D9000FFF7B2FF00F07CFB0320FFF7A1FCFFF779
:102DA00013FF10BD70B50024074D07E049194A888C
:102DB000C1B24020FFF7E0FE641CA4B2A100685A33
:102DC0000028F3D170BD0000743D000838B5002420
:102DD00069460C806A4601214020FFF7C7FC69461E
:102DE0000888C10401D501240AE0410708D4C106BE
:102DF00001D5022404E0800701D5032400E0042467
:102E0000204638BD08B50020694608806A4604217E
:102E10004020FFF7ABFC69460888C006400E08BD9D
:102E200008B50020694608806A4644214020FFF723
:102E30009DFC6946088808BD70B5002500F068F85B
:102E4000002414A000F0A0FC184E06E0801942886F
:102E500017A000F099FC641CA4B2A000315A00290C
:102E6000F4D107E089194A88C1B24020FFF784FEF7
:102E70006D1CADB2A900705A0028F3D1FF20F530C7
:102E8000FDF7A4FEFFF78EFFFDF790FCFDF7D4FFE2
:102E900070BD0000726164617220666C61736820AD
:102EA00076616C75653A0D0A000000003000002064
:102EB000253032583D253034580D0A0070B50024B5
:102EC000074D07E049194A88C1B24020FFF754FE78
:102ED000641CA4B2A100685A0028F3D170BD0000A0
:102EE0003000002010B50022084C09E0052A05D367
:102EF000834203D190000019418010BD521C92B250
:102F00009300E35A002BF1D110BD000030000020E7
:102F100070B500221046164C164E03E0062906D066
:102F2000401C80B28100615A0029F7D11AE081006B
:102F3000081941880F231943418013E000200BE05A
:102F4000052807D3994205D1A9198000498800199D
:102F5000418005E0401C80B28100615A0029EFD118
:102F6000521C92B29500735B002BE7D170BD00003C
:102F700030000020503D000810B50248FEF70CFF5D
:102F800010BD00004803002010B5406A0021462211
:102F90001152C187FEF7EEFE10BD10B5406A016800
:102FA0004A68920892004A60016E1022114301663D
:102FB00001225D210A54FEF7DDFE10BD10B5406A06
:102FC000FFF726F910BD10B5406AFFF7E6F910BD0E
:102FD00070B50546446AFEF79FFB02462868006804
:102FE00080061DD4206841682025A94341602068DF
:102FF00041688908890041606421204600F04CF84E
:10300000002800D02566002120464030C1800121E3
:103010004177206E002803D02046FEF7ABFE70BD3E
:103020002046FFF7CFF870BD70B50546446AFEF73D
:1030300073FB024628680068800620D42068416837
:103040002025A94341606421204600F061F8002852
:1030500002D0206E284320662068416889088900D4
:1030600041600021E18720464030C1800121417745
:10307000206E002803D02046FEF77CFE70BD20465F
:10308000FFF78AF970BD000010B50248FEF75CFE3C
:1030900010BD000048030020F7B504464068FF2635
:1030A000053682B01546B0420CD10121A068C90393
:1030B000884202D04911884204D120680168402228
:1030C000914301600095002280212046039B00F07F
:1030D000AEF82027002813D16068B04216D1A0684E
:1030E000B902884202D0491188420FD103210095CC
:1030F000002249022046039B00F05EF8002805D01C
:10310000206E38432066032005B0F0BD0020FBE7A9
:10311000F8B50F460B4615460092032104460022DF
:10312000C90200F049F82026002812D13B460022AF
:1031300080212046009500F07AF8002809D103216B
:103140003B46002249022046009500F035F8002851
:1031500003D0206E304320660320F8BD10B514481C
:10316000124901600821C161002181604161016152
:103170000722C26281620162816112024162C26001
:103180004163012202634160FEF776FE002800D011
:10319000FEE701204002FFF701F906480449428892
:1031A000A8310348FEF77CFF10BD0000003001404D
:1031B0004803002008000020F8B51D4616460F46BB
:1031C000044610E0032149028F4202D1002E00D1B3
:1031D000007B681C07D0FEF79FFA0699401AA842A8
:1031E00008D2002D06D0206881683940B142E9D16B
:1031F0000020F8BD20684168E0229143416060688A
:10320000C11FFD390CD10121A068C903884202D039
:103210004911884204D1206801684022914301602D
:10322000012040346077002020770320F8BDF8B5F6
:103230001D4617460E46044609E0681C07D0FEF7F7
:103240006BFA0699401AA8420BD2002D09D02068CB
:1032500081683046884321D00020B842EDD100205B
:10326000F8BD20684168E022914341606068C11F59
:10327000FD390CD10121A068C903884202D049114F
:10328000884204D1206801684022914301600120F6
:1032900040346077002020770320F8BD0120DCE770
:1032A000704710B5FEF7F0FC00F050F910BD0000BB
:1032B000024901480860704700366E01480100204D
:1032C00007480169074842680123120C1204DB0316
:1032D0001A43114341600449C003886070470000ED
:1032E000000FFF1F0010024000ED00E0064900281B
:1032F00003D0012804D0054870470020085E7047BD
:103300000220085E7047000004000020FFFFFF7FDE
:10331000002802D00020C0437047064A0023D35E35
:1033200008B2834202D00121131F197010800020BF
:10333000704700000400002010B5074801780029FC
:1033400009D000210170FFF79FFEFDF787FB4004C5
:10335000000CFFF703FF10BD0000002000B50B4874
:1033600087B0416B012211434163406B69461040B5
:1033700005902020009000200190022002900390F0
:1033800005200007FEF732F907B000BD001002402B
:1033900000B51A4887B0426B01210A434263426B71
:1033A0000A400592436B202213434363436B13404F
:1033B0000593C36B4A041343C363C06B0091104071
:1033C00005900220019003900920049002910520AD
:1033D00069460007FEF70AF9042000900490694648
:1033E0000748FEF703F9012203211C20FEF794FC95
:1033F0001C20FEF785FC07B000BD00000010024055
:103400000014005010B5018C490612D501684A69B4
:1034100001231B03446A9A4322434A61416A994249
:1034200007D101684A6903235B03806A9A43024318
:103430004A6110BD10B5406A002141874186FFF7FF
:1034400001F810BD10B5406A0021418720224E21AD
:103450000A54FEF7C3FF10BD10B5002805D00A4678
:1034600001460A230148FFF7D7F810BD28050020C0
:103470000168CA68FF2321339A43CA6001684A6918
:10348000520852004A612021403081737047000089
:1034900010B5FFF77DFF0E480C4901607D21C90280
:1034A000416000218160C160016181610C21416145
:1034B000FFF750F80648D4300078054980015431B0
:1034C000411840220248FFF77CF810BD004400403C
:1034D0002805002070B5014640310A46897B222923
:1034E00001D0022070BD012381681B03994202D1E3
:1034F000016900290CD001684B68416B4C1C446386
:103500000B70418F491E0904090C41870AD01BE04A
:103510000368416B5B68DB05DB0D0B80416B891C2D
:103520004163EEE70168CC6820239C43CC600168CE
:10353000CC68DD00AC43CC6001684C696408640071
:103540004C619373FFF767F8002070BD10B5144C01
:10355000A088002822D0E078401CE070E0780A289B
:103560001CD30120A070207860702078401C20704F
:10357000C007C00F2070A088E0800020A080E0700D
:103580002046D438FEF72CFF207821468001803970
:10359000411820464022D438FFF713F810BD000030
:1035A000FC05002070B50446006801690122520341
:1035B0009143E26811430161A16820690143606998
:1035C00001432068C268274B1A400A43C260206842
:1035D000E16942690123DB029A430A4342612068A0
:1035E0004169032212029143A26911434161E069DA
:1035F00098421AD1FEF794FB6168192249005043A2
:10360000FCF776FD05466421FCF772FD0601642196
:103610004843281AC0003230FCF76AFDF821014007
:10362000490071184007400F18E0FEF779FB616808
:10363000192289005043FCF75BFD05466421FCF725
:1036400057FD060164214843281A00013230FCF777
:103650004FFDF021014071180007000F0818216884
:10366000886070BDF3E9FFFF4D21095C212901D07D
:1036700002207047012281681203914202D1016940
:1036800000290DD0C16A026809785160C16A491CDD
:10369000C162418E491E0904090C418609D012E01D
:1036A000C16A02680988C905C90D5160C16A891CCF
:1036B000EEE70168CA6880239A43CA600068C1685F
:1036C00040221143C16000207047FFB581B01E4603
:1036D000174605460A9C1CE0601C1AD0002C04D03A
:1036E000FEF71AF8801BA04213D92868C168FF2290
:1036F000A1329143C160286841694908490041618C
:10370000202040356873A87300202873032005B07B
:10371000F0BD286801680298884304D00020B842B0
:10372000DAD00020F3E70120F9E7704710B500F088
:1037300001F810BD10B51348FEF786FE11480022AF
:10374000D430C2700F49498F4023591A8180818833
:10375000402915D301218170017841700178491CFD
:103760000170C907C90F01708188C180828000780B
:10377000044980015431411840220248FEF721FFDC
:1037800010BD0000280500200FB410B503A9044B9C
:10379000044A029800F048F810BC08BC04B018476E
:1037A0009D3C00085801002030B47446641E257802
:1037B000641CAB4200D21D46635D5B00E31830BC65
:1037C000184700008307FF22DB0E9A408907090E85
:1037D0009940002808DB830809489B0018180368F3
:1037E00093430B43036070470007000F08388308BA
:1037F00004489B001818C36993430B43C361704787
:1038000000E400E000ED00E002E008C8121F08C17B
:10381000002AFAD170477047002001E001C1121F51
:10382000002AFBD170470000FFB591B00F46054656
:10383000002606E025280AD0149A139990476D1C9B
:10384000761C28780028F5D1304615B0F0BD00244C
:1038500000940121F34A029400E004436D1C2B788C
:103860000846203B98401042F7D128782A280ED0ED
:10387000022128780246303A092A15D8009A0A23EC
:103880005A43303A80180C436D1C0090F1E701CF89
:103890000090002805DA01204003044300984042CC
:1038A0000090022004436D1C28782E2815D1042096
:1038B000044368786D1C2A280AD101CF6D1C029040
:1038C0000BE002990A225143303940186D1C0290D6
:1038D0002878014630390929F3D928786C2810D086
:1038E00006DC4C281AD068280ED06A2817D104E0CC
:1038F000742813D07A2812D110E001204005044327
:103900000CE00121090501E0032109050C43697858
:10391000814203D10120000524186D1C6D1C2878FC
:1039200003906E281ED00CDC632831D004DC002804
:103930008AD0582811D1B2E064287BD069280CD1F4
:1039400078E073282DD004DC6F2870D0702804D163
:10395000A7E075286CD078286BD0149A13999047FB
:10396000761C62E06002400F022807D003280AD0CC
:10397000042838680AD006603F1D56E03868F11701
:1039800006604160F8E738680680F5E70670F3E7FF
:103990003878694608740020487404A80390012010
:1039A00003E0386803900020C0433F1D61070FD536
:1039B000002101E00199491C029A0191914213DA18
:1039C0008142F7DB019A0399895C0029F2D10BE06F
:1039D000002101E00199491C01918142FADB019A21
:1039E0000399895C0029F5D101990098139A401A2E
:1039F00000902146149B00F03BF90199801946186C
:103A000007E0039803990078491C0391149A1399CD
:103A100090470198401E0190401CF2D12146149B12
:103A2000139A009800F014F986196D1C09E741E01B
:103A300033E034E00A200021049005916002410F38
:103A4000022905D001CFC2179446032905D007E00B
:103A5000FF1DFF08FF0003CF06E000B2C217944627
:103A6000042902D140B2C1178C4600226146944518
:103A700006DA0A460021404291418C462D2102E09F
:103A8000210504D52B216A461176012103E0E107C7
:103A900001D02021F7E7019154E00A200BE010202B
:103AA00009E010200490002104200443082005911F
:103AB000029003E008200021059104906002410F6C
:103AC000022905D001CF00229446032906D006E042
:103AD000FF1DFF08FF0003CF8C4603E080B20429DE
:103AE00000D1C0B20021019121072BD50399702983
:103AF00006D0049A1021059B4A401A4305D00EE0D7
:103B000040216A461176012108E06146014306D052
:103B100030216A4611760399517602210191049A67
:103B20000821059B4A401A430CD16146014301D14B
:103B3000610707D530216A4611760121019102996A
:103B4000491E02910399582904D037A103910FA966
:103B50000F910DE039A1F9E76146059B049AFCF746
:103B600063FB039B8C469B5C0F9A521E0F92137053
:103B700061460143F0D10F9807A9081A203003903D
:103B8000600704D5012000048443029801E001206D
:103B900002900399884201DD401A00E0002041189C
:103BA0000290019809180098401A0090E00306D48A
:103BB0002146149B139A009800F05AF886190020A9
:103BC000049008E006A9085C149A13999047049899
:103BD000401C761C049001998842F3DBE0030CD56D
:103BE0002146149B139A009800F042F8861904E0CD
:103BF000149A302013999047761C0299481E02901F
:103C00000029F5DC08E00F980F990078491C0F9106
:103C1000149A13999047761C0399481E0390002923
:103C2000F1DCFBE609280100303132333435363718
:103C300038396162636465660000000030313233F8
:103C40003435363738394142434445460000000098
:103C5000F8B5044600251E461746880404D405E03E
:103C600039462020B0476D1C641EF9D52846F8BDA2
:103C7000FFB50446002581B01E46C80301D5302794
:103C800000E02027880404D505E038460399B047B2
:103C90006D1C641EF9D5284605B0F0BD13B5044B64
:103CA000012269460348FEF7B7FC00981CBD0000DE
:103CB000FFFF000028050020FFF765F8FFF7FEF87A
:103CC000FFF7BAF8FCF750FCFCF7CEFEFCF7E4FC7B
:103CD00003A0FFF759FDFCF7EDFEFCF7E5FCFAE762
:103CE00073797374656D20696E69742066696E6995
:103CF00073686564210D0A00640064006400640058
:103D00006400640064006400640064006400640093
:103D10006400640064000000000000000000000077
:103D20000000000000000000000000000000000093
:103D30000000000000000000FDFCFBFA040302018B
:103D400001000000000040008000000100020004AB
:103D5000700020106C0080886D0000887200500692
:103D6000670000006600F0F06E00FC03410064C8CC
:103D700000000000410074C8720013066C009099A6
:103D80006D00C0997000A02E6E00FC8B6600F0F8EC
:103D900067004010690006000000000000000000FD
:103DA0000000000000000000000000000100000012
:103DB000020000000300000004000000DC3D0008D9
:103DC000000000205C01000072030008C83E0008EB
:103DD0005C010020540900001838000801269202F6
:103DE0003201326712721450064014074241120425
:103DF0001A421612431480384412201A450C1246F7
:103E000024D0014713104824803E4913204A3440EF
:103E10009C4B124C34F0D24D1A4E24324F12501497
:103E2000701751126A125214C0CF5314020A54343C
:103E30002222551256127A125714FFFF583418FED8
:103E400059325A125B12221A5C04125D2419195E4F
:103E500013FF611CEF0162041A63041A64041270F8
:103E60001420106C1480886D2B40999C29A4126634
:103E700014F0F06E14FC8F7612211206144901041E
:103E8000141B02092401690A13C20B141AC0021C74
:103E90001A2005B41A0DA41A0E04120114308E4112
:103EA0001B64C8D849F11809020210B004EE025888
:103EB000023A26027CC20190021A86028422010183
:083EC00013127A32047910316B
:04000005080000C12E
:00000001FF
